:100000000C9434000C9446000C9446000C9446006A
:100010000C9447020C9446000C9446000C94460045
:100020000C9446000C94EF010C9446000C947B0158
:100030000C94BB010C9446000C9446000C944600B2
:100040000C949F030C9446000C9446000C944600BC
:100050000C9446000C9446000C9446000C94460008
:100060000C9446000C94460011241FBECFEFD4E040
:10007000DEBFCDBF11E0A0E0B1E001C01D92A03510
:10008000B107E1F70E946A040C94D1050C940000BA
:100090009AE09093100189E18093110190931201ED
:1000A00010921301909314018FE080931501109228
:1000B00016018FEF8093170184EB8093180181E084
:1000C0008093190182E080931A01089581E0809362
:1000D0003E0110923F016091110170E080E090E0DC
:1000E0002EE330E040E050E00E94D40524E630E00A
:1000F00040E050E00E940706209345016091120104
:1001000070E080E090E02EE330E040E050E00E94BC
:10011000D40524E630E040E050E00E94070620933A
:10012000440187E08093460182E0809347018091FB
:10013000170190911601891B8093480108958F71D2
:10014000806680937C0082EC80937A0080917A00B4
:1001500086FDFCCF83EC80937A0080917A0086FD47
:10016000FCCF80917900089580930801882311F4D1
:100170005C9A22C0813011F45C981EC0823031F448
:100180005C9881E08093340188EC07C0833041F4AF
:100190005C9881E08093340184E180934B010AC034
:1001A000843051F45C9881E08093340184E1809341
:1001B0004B0188EC80932C0110924A010895909194
:1001C0003E01913001F584E180932D018CE0809314
:1001D0002E018AE080932F0182E28093300181E238
:1001E0008093310181E18093320182E080930901A3
:1001F00090930A0110920B0180930C0190930D01D2
:1002000010920E0120C081E180932D0181E2809344
:100210002E0182E280932F018AE0809330018CE0EE
:100220008093310184E1809332011092090191E0C1
:1002300090930A0182E080930B0110920C0190933D
:100240000D0180930E0180E293E090931D01809355
:100250001C0180E991E090931F0180931E0188ECBE
:1002600090E0909321018093200180EA90E09093A8
:100270002301809322018CE890E0909325018093E4
:10028000240188E790E0909327018093260184E67B
:1002900090E0909329018093280180E590E090936D
:1002A0002B0180932A010895282F85B1882319F402
:1002B00080E090E006C080E090E0222311F081E031
:1002C00090E085B990911A0180E011C00000000013
:1002D000000000000000000000000000000000001E
:1002E0000000000000000000000000008F5F891780
:1002F00068F325B908951F920F920FB60F9211243B
:100300002F933F934F935F936F937F938F939F931D
:10031000AF93BF93EF93FF9380910F010E9454011D
:100320001092850010928400809105018170809365
:10033000350186B386BB80914D0190914E01969513
:10034000879590938B0080938A0084E080936F0060
:1003500010923701FF91EF91BF91AF919F918F91D3
:100360007F916F915F914F913F912F910F900FBEB1
:100370000F901F9018951F920F920FB60F92112495
:100380008F93EF93FF9385B385BB86B386BB81E0E4
:1003900080936E0010926F00E0910501F0E0E75F3E
:1003A000FE4F808180937C00809105018F5F809358
:1003B000050180910501863010F010920501E09151
:1003C0000501F0E0E35DFE4F808180930F01FF9116
:1003D000EF918F910F900FBE0F901F9018951F9265
:1003E0000F920FB60F9211248F939F9380913D012E
:1003F000813069F4809136018F5F8093360190914E
:10040000360180911401891710F410923D018091FA
:100410003801813091F480913701893258F010927F
:10042000390115B810926E0010926F0010923F01C2
:1004300018BC03C08F5F8093370180910801823020
:10044000F8F080914A018F5F80934A0180913401D6
:10045000813051F490914A0180914B01891780F4C9
:100460005C9A109234010AC090914A0180912C014B
:10047000891730F45C9881E08093340110924A012E
:100480009F918F910F900FBE0F901F9018951F9204
:100490000F920FB60F9211242F933F934F935F93B8
:1004A0008F939F93EF93FF93E4E8F0E040815181B5
:1004B000118210822091060130910701C901880F35
:1004C000991F820F931F840F951F96958795969578
:1004D0008795909307018093060181E080933B010B
:1004E000FF91EF919F918F915F914F913F912F914C
:1004F0000F900FBE0F901F9018959C0186B386BB7E
:1005000047E35FEF5093850040938400B09BFECF9C
:1005100086B386BB21503040A9F70895EF92FF9231
:100520000F931F93DF93CF9300D000D000D0CDB7AF
:10053000DEB715B88EE388BD81E090E00E947D02B1
:1005400000E010E07E010894E11CF11CF894F80131
:10055000E35DFE4F808185B9F801E75FFE4F808142
:100560000E949F00F701E00FF11F808315B8789477
:1005700081E090E00E947D020F5F1F4F0630110561
:1005800029F79C818981682F70E0690F711D9B811B
:100590008E81482F50E0490F511D9A818D81E82F9F
:1005A000F0E0E90FF11DCF01860F971F9A01220F8E
:1005B000331F821B930B1816190614F4A4E001C014
:1005C000A0E0CA01860F971F9F01220F331F821BD5
:1005D000930B181619060CF4A2604E0F5F1F660FDE
:1005E000771F461B570B141615060CF4A160A53097
:1005F000A1F0A43011F481E011C0A63011F482E022
:100600000DC0A23011F483E009C0A33011F484E0DE
:1006100005C0A13011F485E001C080E026960FB638
:10062000F894DEBF0FBECDBFCF91DF911F910F9128
:10063000FF90EF900895F894809106019091070142
:1006400090934E0180934D01789420914D0130910B
:100650004E018091150190E0AC01429FC001439F83
:10066000900D529F900D11246CE370E00E94F305F1
:100670007093040160930301F894809103019091B9
:100680000401909302018093010178940895809170
:100690001B01282F30E02F57304037FF03C0309523
:1006A00021953F4F309341012093400180914201B9
:1006B000909143018217930720F4309343012093D4
:1006C000420108951F9380911901813049F51092DC
:1006D000390115B810926E0010926F0010923F0110
:1006E00018BC8091450188BD10E080912D0185B92D
:1006F00081E090E00E947D028091300185B981E027
:1007000090E00E947D021F5F1A3F79F71092390135
:1007100015B810926E0010926F0010923F0118BC35
:100720001F91089584E00E949F00982F80911601E8
:10073000891710F080E00895981B892F08951F9263
:100740000F920FB60F9211240F931F932F933F9385
:100750004F935F936F937F938F939F93AF93BF93C9
:10076000EF93FF9390B7907280913501882311F435
:10077000992331F080913501813099F5992389F1E0
:1007800010926E004091840050918500809101018B
:10079000909102019093850080938400209106013E
:1007A00030910701C901880F991F820F931F840F91
:1007B000951F9695879596958795909307018093B9
:1007C0000601809106019091070190938900809322
:1007D000880082E080936F0086B386BB81E08093BF
:1007E0003B0100917C0080910001882309F583E0A2
:1007F0000E949F0080931B0183E00E949F008093D2
:100800001B0190911B0180911801891770F41092BF
:10081000390115B810926E0010926F0010923F01CE
:1008200018BC82E08093490126C081E080933C019E
:1008300010910001113031F40E94920380934C0119
:1008400010933A01809100018F5F809300018091A5
:100850000001823010F01092000180917A008F77B1
:1008600080937A0080917B00806480937B0080E19C
:1008700080BF00937C00FF91EF91BF91AF919F915A
:100880008F917F916F915F914F913F912F911F9128
:100890000F910F900FBE0F901F9018951092390175
:1008A00015B810926E0010926F0010923F0118BCA4
:1008B0000E94B4000E949203909146019817D0F3D1
:1008C00084E690E00E947D021092490181E00E943E
:1008D000B40008956F927F929F92AF92BF92CF9291
:1008E000DF92EF92FF920F931F93CF93DF930E94BB
:1008F00048000E9466008FE384B9559A8FE1809387
:100900007E0080917F00836080937F00549A5C9A80
:100910005B9A81E284BD8AE085BD8EE387BD10923B
:100920006E0082E08093810085E08093B100809129
:10093000700081608093700080917A008F7780933F
:100940007A0080917B00806480937B0080E180BF8F
:100950000E94DF0010923901789484E690E00E94B2
:100960007D020E94620381E00E94B4000E94920313
:1009700080934C010E94920380934C01F2E09F2EE1
:10098000E4E66E2E712CEE24E3947EE3A72EB12CC8
:10099000C12CD12C80913901882309F09CC083E0BF
:1009A0000E949F0080931B010E94920380934C0140
:1009B0000E94470390914C0180914901882309F0DE
:1009C000D0C080914601891708F0CBC04B9903C075
:1009D00010923E0102C0E0923E010E94DF00809131
:1009E0001301882319F41092050104C00E948E029D
:1009F00080930501109237011092380180914501D2
:100A000080933F0188BDE0910501F0E0E35DFE4F7A
:100A1000808185B9809105018F5F80930501E09108
:100A20000501F0E0E35DFE4F808180930F0180912E
:100A30001301823079F1CCE1D1E080910F010E9465
:100A40005401888199810E947D02E0910501F0E0C6
:100A5000E75FFE4F808180937C008091050181706B
:100A600080933501809105018F5F8093050180910E
:100A70000501863010F010920501E0910501F0E0CB
:100A8000E35DFE4F808180930F01229621E0CC32FE
:100A9000D20799F6109285001092840090926F0010
:100AA00080912A0190912B019C01269DC001279DD8
:100AB000900D369D900D11249093070180930601AF
:100AC000E0923801E0923D01109236011092490106
:100AD000E092390146C080913A01882309F43FC071
:100AE00090914C0180914701981720F498BC909206
:100AF0003F0135C080913D01882389F520914C014B
:100B000000914401F090480190914F0180911001B3
:100B10008917E8F410913F01C601B501601B710906
:100B20008109910930E040E050E00E94D4052F2D6A
:100B300030E040E050E00E940706020F101710F46A
:100B40001F5F01C0115010933F0110924F0180911F
:100B50004F018F5F80934F0180913F0188BD1092BC
:100B60003A0180913C01813021F40E9447031092A8
:100B70003C0180913B01813021F40E941B031092C3
:100B80003B0180914901813019F484E00E944E04B8
:100B900080914901823009F0FDCE83E00E944E042D
:100BA000F9CEF8940C942906629FD001739FF0014E
:100BB000829FE00DF11D649FE00DF11D929FF00DED
:100BC000839FF00D749FF00D659FF00D9927729F24
:100BD000B00DE11DF91F639FB00DE11DF91FBD01AF
:100BE000CF0111240895AA1BBB1B51E107C0AA1F06
:100BF000BB1FA617B70710F0A61BB70B881F991FBE
:100C00005A95A9F780959095BC01CD010895A1E270
:100C10001A2EAA1BBB1BFD010DC0AA1FBB1FEE1F76
:100C2000FF1FA217B307E407F50720F0A21BB30BC1
:100C3000E40BF50B661F771F881F991F1A9469F73D
:100C400060957095809590959B01AC01BD01CF0199
:060C50000895F894FFCFA7
:00000001FF
